{
  "contractName": "Escrow",
  "abi": [
    {
      "inputs": [
        {
          "internalType": "address",
          "name": "_buyer",
          "type": "address"
        },
        {
          "internalType": "address payable",
          "name": "_seller",
          "type": "address"
        }
      ],
      "payable": false,
      "stateMutability": "nonpayable",
      "type": "constructor"
    },
    {
      "constant": false,
      "inputs": [],
      "name": "confirmPayment",
      "outputs": [],
      "payable": true,
      "stateMutability": "payable",
      "type": "function"
    },
    {
      "constant": false,
      "inputs": [],
      "name": "confirmDelivery",
      "outputs": [],
      "payable": false,
      "stateMutability": "nonpayable",
      "type": "function"
    }
  ],
  "bytecode": "0x608060405234801561001057600080fd5b506040516103323803806103328339818101604052604081101561003357600080fd5b81019080805190602001909291908051906020019092919050505081600060016101000a81548173ffffffffffffffffffffffffffffffffffffffff021916908373ffffffffffffffffffffffffffffffffffffffff16021790555080600160006101000a81548173ffffffffffffffffffffffffffffffffffffffff021916908373ffffffffffffffffffffffffffffffffffffffff1602179055505050610251806100e16000396000f3fe6080604052600436106100295760003560e01c80635e10177b1461002e57806362ef1f8114610045575b600080fd5b34801561003a57600080fd5b5061004361004f565b005b61004d61016a565b005b600060019054906101000a900473ffffffffffffffffffffffffffffffffffffffff1673ffffffffffffffffffffffffffffffffffffffff163273ffffffffffffffffffffffffffffffffffffffff16146100a957600080fd5b60018060028111156100b757fe5b6000809054906101000a900460ff1660028111156100d157fe5b146100db57600080fd5b600160009054906101000a900473ffffffffffffffffffffffffffffffffffffffff1673ffffffffffffffffffffffffffffffffffffffff166108fc479081150290604051600060405180830381858888f19350505050158015610143573d6000803e3d6000fd5b5060026000806101000a81548160ff0219169083600281111561016257fe5b021790555050565b600060019054906101000a900473ffffffffffffffffffffffffffffffffffffffff1673ffffffffffffffffffffffffffffffffffffffff163273ffffffffffffffffffffffffffffffffffffffff16146101c457600080fd5b60008060028111156101d257fe5b6000809054906101000a900460ff1660028111156101ec57fe5b146101f657600080fd5b60016000806101000a81548160ff0219169083600281111561021457fe5b02179055505056fea265627a7a7231582084dd49ce34598d041fef8f972fb0da23d4db0f63e8beef26c866f1b0b13d5cae64736f6c63430005100032",
  "source": "pragma solidity ^0.5.0;\n\ncontract Jobs{\n    \n    Job public job;\n    Bid public bid;\n    Escrow escrow;\n    struct Job{\n        address client;\n        string description;\n        uint256 price;\n        uint256 due_date;\n    }\n    \n    struct Bid{\n        address payable freelancer;\n        string bid_description;\n        uint bid_price;\n        uint256 days_required;\n        bool accepted;\n        string data_url;\n        uint256 completed_on;\n        bool paid;\n    }\n\n    \n    function postJob(\n        string memory _description,\n        uint256 _price,\n        uint256 _due_date\n    ) \n    public\n    {\n        job = Job(\n            msg.sender,\n            _description, \n            _price, \n            _due_date\n        );\n    }\n    \n    function postBid(\n        string memory _bid_description,\n        uint _bid_price,\n        uint256 _days_required\n    ) \n    public\n    {\n        bid = Bid(\n            msg.sender, \n            _bid_description, \n            _bid_price, \n            _days_required, \n            false, \n            \"null\", \n            0,\n            false\n        );\n    }\n    \n    function acceptBid(\n    )\n    public\n    {   \n        escrow  = new Escrow (job.client, bid.freelancer);\n        bid.accepted = true;\n        makePayment();\n    }\n    \n    function makePayment() public{\n        escrow.confirmPayment();\n    }\n    \n    function postProjectSubmission(\n        string memory _data_url, \n        uint256 _completed_on\n    )\n    public\n    {\n        bid.data_url = _data_url;\n        bid.completed_on = _completed_on;\n    }\n    \n    function acceptProjectSubmission (\n    )\n    public payable{\n        escrow.confirmDelivery();\n        bid.paid = true;\n    }\n}\n\ncontract Escrow {\n    enum State {AWAITING_PAYMENT, AWAITING_DELIVERY, COMPLETE}\n    State currentState;\n    \n    address buyer;\n    address payable seller;\n    \n    constructor (address _buyer, address payable _seller) public{\n        buyer = _buyer;\n        seller = _seller;\n    }\n        \n    modifier buyerOnly() { require(tx.origin == buyer); _;}\n    modifier inState(State expectedState){ require(currentState == expectedState); _;}\n    \n    function confirmPayment() buyerOnly inState(State.AWAITING_PAYMENT) public payable{\n        currentState = State.AWAITING_DELIVERY;\n    }\n    \n    function confirmDelivery() buyerOnly inState(State.AWAITING_DELIVERY) public{\n        seller.transfer(address(this).balance);\n        currentState = State.COMPLETE;\n    }\n}",
  "sourcePath": "/home/meeexy/Documents/dev/testBitWork/contracts/Jobs.sol",
  "compiler": {
    "name": "solc",
    "version": "0.5.16+commit.9c3226ce.Emscripten.clang"
  },
  "schemaVersion": "3.2.0",
  "updatedAt": "2020-06-21T09:50:25.702Z",
  "devdoc": {
    "methods": {}
  },
  "userdoc": {
    "methods": {}
  }
}