{
  "contractName": "Jobs",
  "abi": [
    {
      "constant": true,
      "inputs": [],
      "name": "bid",
      "outputs": [
        {
          "internalType": "address payable",
          "name": "freelancer",
          "type": "address"
        },
        {
          "internalType": "string",
          "name": "bid_description",
          "type": "string"
        },
        {
          "internalType": "uint256",
          "name": "bid_price",
          "type": "uint256"
        },
        {
          "internalType": "uint256",
          "name": "days_required",
          "type": "uint256"
        },
        {
          "internalType": "bool",
          "name": "accepted",
          "type": "bool"
        },
        {
          "internalType": "string",
          "name": "data_url",
          "type": "string"
        },
        {
          "internalType": "uint256",
          "name": "completed_on",
          "type": "uint256"
        },
        {
          "internalType": "bool",
          "name": "paid",
          "type": "bool"
        }
      ],
      "payable": false,
      "stateMutability": "view",
      "type": "function"
    },
    {
      "constant": true,
      "inputs": [],
      "name": "job",
      "outputs": [
        {
          "internalType": "address",
          "name": "client",
          "type": "address"
        },
        {
          "internalType": "string",
          "name": "description",
          "type": "string"
        },
        {
          "internalType": "uint256",
          "name": "price",
          "type": "uint256"
        },
        {
          "internalType": "uint256",
          "name": "due_date",
          "type": "uint256"
        }
      ],
      "payable": false,
      "stateMutability": "view",
      "type": "function"
    },
    {
      "constant": false,
      "inputs": [
        {
          "internalType": "string",
          "name": "_description",
          "type": "string"
        },
        {
          "internalType": "uint256",
          "name": "_price",
          "type": "uint256"
        },
        {
          "internalType": "uint256",
          "name": "_due_date",
          "type": "uint256"
        }
      ],
      "name": "postJob",
      "outputs": [],
      "payable": false,
      "stateMutability": "nonpayable",
      "type": "function"
    },
    {
      "constant": false,
      "inputs": [
        {
          "internalType": "string",
          "name": "_bid_description",
          "type": "string"
        },
        {
          "internalType": "uint256",
          "name": "_bid_price",
          "type": "uint256"
        },
        {
          "internalType": "uint256",
          "name": "_days_required",
          "type": "uint256"
        }
      ],
      "name": "postBid",
      "outputs": [],
      "payable": false,
      "stateMutability": "nonpayable",
      "type": "function"
    },
    {
      "constant": false,
      "inputs": [],
      "name": "acceptBid",
      "outputs": [],
      "payable": false,
      "stateMutability": "nonpayable",
      "type": "function"
    },
    {
      "constant": false,
      "inputs": [],
      "name": "makePayment",
      "outputs": [],
      "payable": false,
      "stateMutability": "nonpayable",
      "type": "function"
    },
    {
      "constant": false,
      "inputs": [
        {
          "internalType": "string",
          "name": "_data_url",
          "type": "string"
        },
        {
          "internalType": "uint256",
          "name": "_completed_on",
          "type": "uint256"
        }
      ],
      "name": "postProjectSubmission",
      "outputs": [],
      "payable": false,
      "stateMutability": "nonpayable",
      "type": "function"
    },
    {
      "constant": false,
      "inputs": [],
      "name": "acceptProjectSubmission",
      "outputs": [],
      "payable": true,
      "stateMutability": "payable",
      "type": "function"
    }
  ],
  "bytecode": "0x608060405234801561001057600080fd5b5061113b806100206000396000f3fe60806040526004361061007b5760003560e01c8063d3fa1d621161004e578063d3fa1d6214610387578063d8d7970014610463578063d8fcd7df1461047a578063e52a7874146105565761007b565b806303549c5c146100805780631998aeef1461008a57806358e7ec3c146101e457806399a35e2b146102b5575b600080fd5b61008861056d565b005b34801561009657600080fd5b5061009f61060f565b604051808973ffffffffffffffffffffffffffffffffffffffff1673ffffffffffffffffffffffffffffffffffffffff1681526020018060200188815260200187815260200186151515158152602001806020018581526020018415151515815260200183810383528a818151815260200191508051906020019080838360005b8381101561013b578082015181840152602081019050610120565b50505050905090810190601f1680156101685780820380516001836020036101000a031916815260200191505b50838103825286818151815260200191508051906020019080838360005b838110156101a1578082015181840152602081019050610186565b50505050905090810190601f1680156101ce5780820380516001836020036101000a031916815260200191505b509a505050505050505050505060405180910390f35b3480156101f057600080fd5b506101f96107af565b604051808573ffffffffffffffffffffffffffffffffffffffff1673ffffffffffffffffffffffffffffffffffffffff16815260200180602001848152602001838152602001828103825285818151815260200191508051906020019080838360005b8381101561027757808201518184015260208101905061025c565b50505050905090810190601f1680156102a45780820380516001836020036101000a031916815260200191505b509550505050505060405180910390f35b3480156102c157600080fd5b50610385600480360360408110156102d857600080fd5b81019080803590602001906401000000008111156102f557600080fd5b82018360208201111561030757600080fd5b8035906020019184600183028401116401000000008311171561032957600080fd5b91908080601f016020809104026020016040519081016040528093929190818152602001838380828437600081840152601f19601f82011690508083019250505050505050919291929080359060200190929190505050610885565b005b34801561039357600080fd5b50610461600480360360608110156103aa57600080fd5b81019080803590602001906401000000008111156103c757600080fd5b8201836020820111156103d957600080fd5b803590602001918460018302840111640100000000831117156103fb57600080fd5b91908080601f016020809104026020016040519081016040528093929190818152602001838380828437600081840152601f19601f82011690508083019250505050505050919291929080359060200190929190803590602001909291905050506108ad565b005b34801561046f57600080fd5b50610478610965565b005b34801561048657600080fd5b506105546004803603606081101561049d57600080fd5b81019080803590602001906401000000008111156104ba57600080fd5b8201836020820111156104cc57600080fd5b803590602001918460018302840111640100000000831117156104ee57600080fd5b91908080601f016020809104026020016040519081016040528093929190818152602001838380828437600081840152601f19601f82011690508083019250505050505050919291929080359060200190929190803590602001909291905050506109e9565b005b34801561056257600080fd5b5061056b610b5e565b005b600c60009054906101000a900473ffffffffffffffffffffffffffffffffffffffff1673ffffffffffffffffffffffffffffffffffffffff16635e10177b6040518163ffffffff1660e01b8152600401600060405180830381600087803b1580156105d757600080fd5b505af11580156105eb573d6000803e3d6000fd5b505050506001600460070160006101000a81548160ff021916908315150217905550565b60048060000160009054906101000a900473ffffffffffffffffffffffffffffffffffffffff1690806001018054600181600116156101000203166002900480601f0160208091040260200160405190810160405280929190818152602001828054600181600116156101000203166002900480156106cf5780601f106106a4576101008083540402835291602001916106cf565b820191906000526020600020905b8154815290600101906020018083116106b257829003601f168201915b5050505050908060020154908060030154908060040160009054906101000a900460ff1690806005018054600181600116156101000203166002900480601f01602080910402602001604051908101604052809291908181526020018280546001816001161561010002031660029004801561078c5780601f106107615761010080835404028352916020019161078c565b820191906000526020600020905b81548152906001019060200180831161076f57829003601f168201915b5050505050908060060154908060070160009054906101000a900460ff16905088565b60008060000160009054906101000a900473ffffffffffffffffffffffffffffffffffffffff1690806001018054600181600116156101000203166002900480601f01602080910402602001604051908101604052809291908181526020018280546001816001161561010002031660029004801561086f5780601f106108445761010080835404028352916020019161086f565b820191906000526020600020905b81548152906001019060200180831161085257829003601f168201915b5050505050908060020154908060030154905084565b816004600501908051906020019061089e929190610ca2565b50806004600601819055505050565b60405180608001604052803373ffffffffffffffffffffffffffffffffffffffff168152602001848152602001838152602001828152506000808201518160000160006101000a81548173ffffffffffffffffffffffffffffffffffffffff021916908373ffffffffffffffffffffffffffffffffffffffff1602179055506020820151816001019080519060200190610948929190610d22565b506040820151816002015560608201518160030155905050505050565b600c60009054906101000a900473ffffffffffffffffffffffffffffffffffffffff1673ffffffffffffffffffffffffffffffffffffffff166362ef1f816040518163ffffffff1660e01b8152600401600060405180830381600087803b1580156109cf57600080fd5b505af11580156109e3573d6000803e3d6000fd5b50505050565b6040518061010001604052803373ffffffffffffffffffffffffffffffffffffffff1681526020018481526020018381526020018281526020016000151581526020016040518060400160405280600481526020017f6e756c6c0000000000000000000000000000000000000000000000000000000081525081526020016000815260200160001515815250600460008201518160000160006101000a81548173ffffffffffffffffffffffffffffffffffffffff021916908373ffffffffffffffffffffffffffffffffffffffff1602179055506020820151816001019080519060200190610ada929190610d22565b50604082015181600201556060820151816003015560808201518160040160006101000a81548160ff02191690831515021790555060a0820151816005019080519060200190610b2b929190610d22565b5060c0820151816006015560e08201518160070160006101000a81548160ff021916908315150217905550905050505050565b6000800160009054906101000a900473ffffffffffffffffffffffffffffffffffffffff16600460000160009054906101000a900473ffffffffffffffffffffffffffffffffffffffff16604051610bb590610da2565b808373ffffffffffffffffffffffffffffffffffffffff1673ffffffffffffffffffffffffffffffffffffffff1681526020018273ffffffffffffffffffffffffffffffffffffffff1673ffffffffffffffffffffffffffffffffffffffff16815260200192505050604051809103906000f080158015610c3a573d6000803e3d6000fd5b50600c60006101000a81548173ffffffffffffffffffffffffffffffffffffffff021916908373ffffffffffffffffffffffffffffffffffffffff16021790555060016004800160006101000a81548160ff021916908315150217905550610ca0610965565b565b828054600181600116156101000203166002900490600052602060002090601f016020900481019282601f10610ce357805160ff1916838001178555610d11565b82800160010185558215610d11579182015b82811115610d10578251825591602001919060010190610cf5565b5b509050610d1e9190610daf565b5090565b828054600181600116156101000203166002900490600052602060002090601f016020900481019282601f10610d6357805160ff1916838001178555610d91565b82800160010185558215610d91579182015b82811115610d90578251825591602001919060010190610d75565b5b509050610d9e9190610daf565b5090565b61033280610dd583390190565b610dd191905b80821115610dcd576000816000905550600101610db5565b5090565b9056fe608060405234801561001057600080fd5b506040516103323803806103328339818101604052604081101561003357600080fd5b81019080805190602001909291908051906020019092919050505081600060016101000a81548173ffffffffffffffffffffffffffffffffffffffff021916908373ffffffffffffffffffffffffffffffffffffffff16021790555080600160006101000a81548173ffffffffffffffffffffffffffffffffffffffff021916908373ffffffffffffffffffffffffffffffffffffffff1602179055505050610251806100e16000396000f3fe6080604052600436106100295760003560e01c80635e10177b1461002e57806362ef1f8114610045575b600080fd5b34801561003a57600080fd5b5061004361004f565b005b61004d61016a565b005b600060019054906101000a900473ffffffffffffffffffffffffffffffffffffffff1673ffffffffffffffffffffffffffffffffffffffff163273ffffffffffffffffffffffffffffffffffffffff16146100a957600080fd5b60018060028111156100b757fe5b6000809054906101000a900460ff1660028111156100d157fe5b146100db57600080fd5b600160009054906101000a900473ffffffffffffffffffffffffffffffffffffffff1673ffffffffffffffffffffffffffffffffffffffff166108fc479081150290604051600060405180830381858888f19350505050158015610143573d6000803e3d6000fd5b5060026000806101000a81548160ff0219169083600281111561016257fe5b021790555050565b600060019054906101000a900473ffffffffffffffffffffffffffffffffffffffff1673ffffffffffffffffffffffffffffffffffffffff163273ffffffffffffffffffffffffffffffffffffffff16146101c457600080fd5b60008060028111156101d257fe5b6000809054906101000a900460ff1660028111156101ec57fe5b146101f657600080fd5b60016000806101000a81548160ff0219169083600281111561021457fe5b02179055505056fea265627a7a7231582084dd49ce34598d041fef8f972fb0da23d4db0f63e8beef26c866f1b0b13d5cae64736f6c63430005100032a265627a7a72315820aa043dff52a4a37c6accc19213b81f88454a3df18943b1fac33e70863a9877f464736f6c63430005100032",
  "source": "pragma solidity ^0.5.0;\n\ncontract Jobs{\n    \n    Job public job;\n    Bid public bid;\n    Escrow escrow;\n    struct Job{\n        address client;\n        string description;\n        uint256 price;\n        uint256 due_date;\n    }\n    \n    struct Bid{\n        address payable freelancer;\n        string bid_description;\n        uint bid_price;\n        uint256 days_required;\n        bool accepted;\n        string data_url;\n        uint256 completed_on;\n        bool paid;\n    }\n\n    \n    function postJob(\n        string memory _description,\n        uint256 _price,\n        uint256 _due_date\n    ) \n    public\n    {\n        job = Job(\n            msg.sender,\n            _description, \n            _price, \n            _due_date\n        );\n    }\n    \n    function postBid(\n        string memory _bid_description,\n        uint _bid_price,\n        uint256 _days_required\n    ) \n    public\n    {\n        bid = Bid(\n            msg.sender, \n            _bid_description, \n            _bid_price, \n            _days_required, \n            false, \n            \"null\", \n            0,\n            false\n        );\n    }\n    \n    function acceptBid(\n    )\n    public\n    {   \n        escrow  = new Escrow (job.client, bid.freelancer);\n        bid.accepted = true;\n        makePayment();\n    }\n    \n    function makePayment() public{\n        escrow.confirmPayment();\n    }\n    \n    function postProjectSubmission(\n        string memory _data_url, \n        uint256 _completed_on\n    )\n    public\n    {\n        bid.data_url = _data_url;\n        bid.completed_on = _completed_on;\n    }\n    \n    function acceptProjectSubmission (\n    )\n    public payable{\n        escrow.confirmDelivery();\n        bid.paid = true;\n    }\n}\n\ncontract Escrow {\n    enum State {AWAITING_PAYMENT, AWAITING_DELIVERY, COMPLETE}\n    State currentState;\n    \n    address buyer;\n    address payable seller;\n    \n    constructor (address _buyer, address payable _seller) public{\n        buyer = _buyer;\n        seller = _seller;\n    }\n        \n    modifier buyerOnly() { require(tx.origin == buyer); _;}\n    modifier inState(State expectedState){ require(currentState == expectedState); _;}\n    \n    function confirmPayment() buyerOnly inState(State.AWAITING_PAYMENT) public payable{\n        currentState = State.AWAITING_DELIVERY;\n    }\n    \n    function confirmDelivery() buyerOnly inState(State.AWAITING_DELIVERY) public{\n        seller.transfer(address(this).balance);\n        currentState = State.COMPLETE;\n    }\n}",
  "sourcePath": "/home/meeexy/Documents/dev/testBitWork/contracts/Jobs.sol",
  "compiler": {
    "name": "solc",
    "version": "0.5.16+commit.9c3226ce.Emscripten.clang"
  },
  "schemaVersion": "3.2.0",
  "updatedAt": "2020-06-21T11:11:02.779Z",
  "networkType": "ethereum",
  "devdoc": {
    "methods": {}
  },
  "userdoc": {
    "methods": {}
  }
}